:020000040000FA
:100000008316861006148515051683120C20FD2113
:10001000C121BF2263000A28E2201E211830662178
:10002000C3214030142125306621C32108008207F6
:1000300050347234613463347434693463346134F9
:100040002034533445344434003445346C346934FA
:100050006734653420345434583420346F342034B9
:10006000523458343A34003430343D3452346534E8
:1000700063346534703474346F3472340034313422
:100080003D3445346D34693473346F347234003424
:100090004434613474346F34733420344334613401
:1000A00072346734613464346F34733400344534EB
:1000B0004D3449345434493445344E3444344F3447
:1000C00020345234423431340034523445344334D1
:1000D00049344234493445344E3444344F34203466
:1000E00052344234303400344434613474346F3424
:1000F0007334203445344E34563449344134443416
:100100004F3453340034523445344334453450343E
:10011000433449344F344E3420344F344B3400345C
:100120004234693474342034533474346134723456
:1001300074340034423469347434203453347434A5
:100140006F347034203400344534723472346F3478
:1001500072342034483461347934203432342034D9
:1001600054345834203400344534723472346F348B
:1001700072342034483461347934203432342034B9
:10018000523458342034003445346D346934733477
:100190006F347234203446346F3475346E346434C2
:1001A000213400345234653463346534703474342B
:1001B0006F347234203446346F3475346E346434A2
:1001C0002134003483160510051185108312851023
:1001D00005110510AB213030FA20AF213030FA2064
:1001E00098213030FA202030FA2020211E211C21B5
:1001F0000E210800F039930006080F399304831686
:10020000060895000F308605831213088600051531
:10021000051183161508860083120800063021296F
:1002200080302129C030212980382129C038212956
:10023000083021290E3021290C30212901302129B3
:1002400028300510252905142D219400FA20140EBC
:10025000FA20051CB1219D2108009300F13C031DEB
:100260003429EE30930041291308D13C031D3B296A
:10027000EE30930041291308BA3C031D4129DF30B9
:1002800093001308080010304A2901304A2902302F
:100290004A290330960020302321960B4B29080071
:1002A0009700F039031D5829203023215A2997003F
:1002B000170E5B2117080F399600093C031C6329B0
:1002C0001608303E65291608373E23299800173056
:1002D00098029803180817209900990803197329A0
:1002E0002321980A6A290800980017309802980379
:1002F0009A011E2110301A02031D8329A521A52170
:100300000F309802782918081720990099080319C6
:100310008D2923219A0A980A7A29080000000000F2
:10032000000000000000000008000000A430A12927
:1003300000004030A1291F30A12900000E30A12962
:1003400005309B009B0BA2290800C830B4296430FB
:10035000B4293230B4291430B4290A30B429053014
:10036000B4290230B42901309C00F9309B00000010
:100370009B0BB7299C0BB5290800C830C8296430ED
:10038000C8293230C8291430C8290A30C829053094
:100390009D0064309C00F9309B0000009B0BCD2930
:1003A0009C0BCB299D0BC9290800C32108308D0067
:1003B0008C01E2201E21033014215B3023210C30FC
:1003C00014215D30232104301421051AE829F02975
:1003D00003148C0C31302321C3218D0BE529F7291F
:1003E00003108C0C30302321C3218D0BE5291E21F5
:1003F000122148306621C3210800051E102A1E2143
:100400003F306621C3218614C121061C082A202AF8
:1004100003011E21D2306621C321D5212D222C2A91
:100420001E2134306621C3218610C121061C262AD4
:10043000192A03011E21C4306621C3214C222C2A13
:1004400003011E21A4306621C321082803011E21B7
:10045000B4306621C3210828080008308E0003014B
:100460001E2157306621C521061486148610C52129
:100470008C0C03183C2A412A8614C5218E0B382A7D
:10048000452A8610C5218E0B382A8614C3211E21C9
:1004900074306621C3210800030108308F00030176
:1004A0001E2165306621C3210614861406148614A5
:1004B0000618542AA521A521A7210618542A1E2171
:1004C000102190306621A521A521A721A521122167
:1004D00006186B2A732A31302321C5210314900C8E
:1004E0008F0B682A7A2A30302321C5210310900C03
:1004F0008F0B682AC52110219A306621C3211E2145
:1005000083306621C321831686018312900C031861
:100510008A2A8C2A86178D2A8613900C0318912A12
:10052000932A0617942A0613900C0318982A9A2ADD
:1005300086169B2A8612900C03189F2AA12A06165B
:10054000A22A0612900C0318A62AA82A8615A92A00
:100550008611900C0318AD2AAF2A0615B02A061191
:10056000900C0318B42AB62A8614B72A8610900C69
:100570000318BB2ABD2A0614BE2A061008008316DB
:100580008601831200308600A52181308600A521D6
:1005900042308600A52124308600A521183086002F
:1005A000A5213C308600A5217E308600A521FF30A4
:1005B0008600A521E7308600A521C3308600A5214D
:1005C00081308600A52181308600A521C3308600B8
:1005D000A521E7308600A521FF308600A521FF3048
:1005E0008600A5217E308600A5213C308600A5210D
:1005F00018308600A52124308600A52142308600CF
:10060000A52181308600A52100308600A52101307A
:100610008600A52102308600A52104308600A52190
:1006200008308600A52110308600A52120308600E4
:10063000A52140308600A52180308600A52100300C
:100640008600A52180308600A52140308600A521A6
:1006500020308600A52110308600A52108308600B4
:10066000A52104308600A52102308600A521013095
:060670008600A521C22A4C
:02400E00F13F80
:00000001FF
