:020000040000FA
:100000008316861006148515051683120A20BC2156
:1000100063000828A120DD201630252182214030F0
:10002000D3202330252182210800820750347234E6
:100030006134633474346934633461342034533448
:1000400045344434003445346C34693467346534A1
:1000500020345434583420346F34203452345834DB
:100060003A34003430343D345234653463346534CA
:1000700070347434003431343D3445346D34693473
:1000800073346F34723400344434613474346F34F4
:1000900073342034433461347234673461346434EB
:1000A0006F347334003445344D3449345434493456
:1000B00045344E3444344F34203452344234313495
:1000C000003452344534433449344234493445349D
:1000D0004E3444344F3420345234423430340034BB
:1000E0004434613474346F347334203445344E34C2
:1000F00056344934413444344F3453340034523448
:1001000045344334453450344334433449344F3414
:100110004E3420344F344B34003442346934743418
:1001200020345334743461347234743400344234BF
:10013000693474342034533474346F34703420345C
:1001400000348316051005118510831285100511E2
:1001500005106A213030B9206E213030B920572186
:100160003030B9202030B920DF20DD20DB20CD2049
:100170000800F039910006080F399104831606082B
:1001800093000F30860583121108860005150511AE
:10019000831613088600831208000630E02880309A
:1001A000E028C030E0288038E028C038E028083057
:1001B000E0280E30E0280C30E0280130E02828301C
:1001C0000510E4280514EC209200B920120EB92085
:1001D000051C70215C2108009100F13C031DF328EF
:1001E000EE30910000291108D13C031DFA28EE30B1
:1001F000910000291108BA3C031D0029DF3091004D
:100200001108080010300929013009290230092994
:10021000033094002030E220940B0A290800950056
:10022000F039031D17292030E22019299500150EF9
:100230001A2115080F399400093C031C22291408BF
:10024000303E24291408373EE228960015309602E5
:100250009603160815209700970803193229E22003
:10026000960A2929080096001530960296039801EF
:10027000DD2010301802031D4229642164210F3053
:1002800096023729160815209700970803194C295C
:10029000E220980A960A39290800000000000000B0
:1002A00000000000000008000000A43060290000E9
:1002B000403060291F30602900000E306029053071
:1002C0009900990B61290800C8307329643073299B
:1002D00032307329143073290A3073290530732999
:1002E0000230732901309A00F93099000000990B0F
:1002F00076299A0B74290800C83087296430872929
:1003000032308729143087290A30872905309B002D
:1003100064309A00F93099000000990B8C299A0BEF
:100320008A299B0B88290800822108308D008C01C6
:10033000A120DD200330D3205B30E2200C30D3201D
:100340005D30E2200430D320051AA729AF29031419
:100350008C0C3130E22082218D0BA429B6290310A8
:100360008C0C3030E22082218D0BA429DD20D1209D
:100370004430252182210800051EC529DD203B309F
:10038000252182219421CC21CB29DD203230252149
:100390008221EB21CB29080008308E000301DD20EB
:1003A00053302521842106148614861084218C0C58
:1003B0000318DB29E029861484218E0BD729E42930
:1003C000861084218E0BD72986148221DD2070307F
:1003D000252182210800030108308F000301DD2060
:1003E000613025218221061486140618F329642120
:1003F000642166210618F329DD20CF208D302521C8
:100400006421642166216421D1200618082A102A5B
:100410003130E22084210314900C8F0B052A172A17
:100420003030E22084210310900C8F0B052A8421A8
:10043000CF20973025218221DD207F302521822188
:10044000831686018312900C0318272A292A8617FF
:100450002A2A8613900C03182E2A302A0617312ACE
:100460000613900C0318352A372A8616382A861266
:10047000900C03183C2A3E2A06163F2A0612900CBE
:100480000318432A452A8615462A8611900C03181C
:100490004A2A4C2A06154D2A0611900C0318512A97
:1004A000532A8614542A8610900C0318582A5A2A64
:0804B00006145B2A0610080087
:02400E00F13F80
:00000001FF
