:020000040000FA
:1000000083168610061486110615851505168312AB
:100010000C20FB2163000A28E0201C2118306421F9
:10002000C1214030122125306421C12108008207FE
:1000300050347234613463347434693463346134F9
:100040002034533445344434003445346C346934FA
:100050006734653420345434583420346F342034B9
:10006000523458343A34003430343D3452346534E8
:100070006334653470347434003431343D34453481
:100080006D34693473346F34723400344434613401
:1000900074346F34733420344334613472346734CD
:1000A000613464346F347334003445344D3449342E
:1000B0005434493445344E3444344F34203452346B
:1000C00042343134003452344534433449344234B8
:1000D000493445344E3444344F342034523442345D
:1000E000303400344434613474346F347334203425
:1000F00045344E3456344934413444344F34533407
:100100000034523445344334453450344334493454
:100110004F344E3420344F344B340034423469343D
:10012000743420345334743461347234743400348D
:100130004234693474342034533474346F3470343A
:10014000203400344534723472346F3472342034C5
:1001500048346134793420343234203454345834BF
:10016000203400344534723472346F3472342034A5
:1001700048346134793420343234203452345834A1
:100180002034003445346D34693473346F34723440
:10019000203446346F3475346E3464342134003482
:1001A0005234653463346534703474346F3472346B
:1001B000203446346F3475346E3464342134003462
:1001C0008316051005118510831285100511051081
:1001D000A9213030F820AD213030F8209621303080
:1001E000F8202030F8201E211C211A210C210800A3
:1001F000F039910006080F39910483160608930020
:100200000F30860583121108860005150511831627
:10021000130886008312080006301F2980301F292A
:10022000C0301F2980381F29C0381F2908301F29D6
:100230000E301F290C301F2901301F2928300510CE
:10024000232905142B219200F820120EF820051CFA
:10025000AF219B2108009100F13C031D3229EE30B3
:1002600091003F291108D13C031D3929EE3091003E
:100270003F291108BA3C031D3F29DF3091001108C6
:10028000080010304829013048290230482903303D
:10029000940020302121940B492908009500F03961
:1002A000031D56292030212158299500150E59216A
:1002B00015080F399400093C031C61291408303ECD
:1002C00063291408373E21299600173096029603B9
:1002D0001608172097009708031971292121960AFB
:1002E00068290800960017309602960398011C2191
:1002F00010301802031D8129A321A3210F3096027B
:100300007629160817209700970803198B292121B1
:10031000980A960A782908000000000000000000F2
:100320000000000008000000A4309F2900004030B9
:100330009F291F309F2900000E309F29053099000A
:10034000990BA0290800C830B2296430B229323094
:10035000B2291430B2290A30B2290530B22902304C
:10036000B22901309A00F93099000000990BB529A3
:100370009A0BB3290800C830C6296430C629323028
:10038000C6291430C6290A30C62905309B006430BE
:100390009A00F93099000000990BCB299A0BC929D2
:1003A0009B0BC7290800C12108308D008C01E0207B
:1003B0001C21033012215B3021210C3012215D30D1
:1003C000212104301221051AE629EE2903148C0C90
:1003D00031302121C1218D0BE329F52903108C0C2B
:1003E00030302121C1218D0BE3291C211021463001
:1003F0006421C1210800051E0E2A1C213D30642104
:10040000C1218611BF210619062A1E2A03011C21BB
:10041000D0306421C121D3212B222A2A1C2134303F
:100420006421C1218615BF210619242A172A030138
:100430001C21C2306421C1214A222A2A03011C2125
:10044000A2306421C1210A2803011C21B230642199
:10045000C1210A28080008308E0003011C215530F4
:100460006421C321061486148610C3218C0C031842
:100470003A2A3F2A8614C3218E0B362A432A861035
:10048000C3218E0B362A8614C1211C2172306421AF
:10049000C1210800030108308F0003011C216330D3
:1004A0006421C121061486140615861506148614C7
:1004B000061586150618522AA321A321A521061880
:1004C000522A1C210E218E306421A321A321A521B3
:1004D000A321102106186D2A752A31302121C3214C
:1004E0000314900C8F0B6A2A7C2A30302121C321FF
:1004F0000310900C8F0B6A2AC3210E2198306421BF
:10050000C1211C2181306421C121831686018312FF
:10051000900C03188C2A8E2A86178F2A8613900C2B
:100520000318932A952A0617962A0613900C031887
:100530009A2A9C2A86169D2A8612900C0318A12AB4
:10054000A32A0616A42A0612900C0318A82AAA2A7F
:100550008615AB2A8611900C0318AF2AB12A06150E
:10056000B22A0611900C0318B62AB82A8614B92AA2
:100570008610900C0318BD2ABF2A0614C02A061044
:02058000080071
:02400E00F13F80
:00000001FF
